:100000000C942A000C9434000C9434000C943400AA
:100010000C9434000C9434000C9434000C94340090
:100020000C9434000C9434000C9434000C94340080
:100030000C9434000C9434000C9434000C94340070
:100040000C9434000C9434000C9434000C94340060
:100050000C94340011241FBECFE5D4E0DEBFCDBF29
:100060000E944E000C9458000C94000020E030E0F8
:10007000EFE9FFE03197F1F700C000002F5F3F4F3D
:1000800082179307A8F70895C09A84EF91E00E9421
:100090003600C09884EF91E00C9436008FEF87BB58
:1000A00084BB81BB18BA15BA12BA0E944400FDCFB6
:0400B000F894FFCFF2
:00000001FF
