:100000000C942A000C9434000C9434000C943400AA
:100010000C9434000C9434000C9434000C94340090
:100020000C9434000C9434000C9434000C94340080
:100030000C9434000C9434000C9434000C94340070
:100040000C9434000C9434000C9434000C94340060
:100050000C94340011241FBECFE5D4E0DEBFCDBF29
:100060000E9446000C9458000C94000020E030E000
:10007000EFE9FFE03197F1F700C000002F5F3F4F3D
:1000800082179307A8F70895C09A08958FEF87BB4A
:1000900084BB81BB18BA15BA12BAC09A88EE93E035
:1000A0000E943600C09888EE93E00E943600F5CF9B
:0400B000F894FFCFF2
:00000001FF
