:100000000C9452000C945C000C945C000C945C000A
:100010000C945C000C945C000C945C000C945C00F0
:100020000C945C000C945C000C945C000C945C00E0
:100030000C945C000C945C000C945C000C945C00D0
:100040000C945C000C945C000C945C000C945C00C0
:100050000C945C00750075007500750077007700E2
:1000600077007900770079007700790077007900D0
:1000700077007900770079007900790084008400A6
:100080008400840086008600860088008600880040
:100090008600880086008800860088008600880028
:1000A0008800880011241FBECFE5D4E0DEBFCDBF9D
:1000B0000E949F000C94AE000C94000020E030E001
:1000C000E9EFF0E03197F1F700C000002F5F3F4FFC
:1000D00082179307A8F7089501978431910550F48A
:1000E000865D9F4FFC010C94A80088B3089585B3EA
:1000F000089582B3089501978431910550F4825C8C
:100100009F4FFC010C94A80088B3089585B308950F
:1001100082B30895CF93DF93C1E0D0E0CE010E9477
:100120006C0088EE93E00E945E00CE010E947B008E
:100130002196C531D10591F7DF91CF9108958FEFC9
:1001400087BB84BB81BB18BA15BA12BA88B3FFCF7C
:10015000EE0FFF1F0590F491E02D0994F894FFCF66
:00000001FF
