:100000000C942A000C9434000C9434000C943400AA
:100010000C9434000C9434000C9434000C94340090
:100020000C9434000C9434000C9434000C94340080
:100030000C9434000C9434000C9434000C94340070
:100040000C9434000C9434000C9434000C94340060
:100050000C94340011241FBECFE5D4E0DEBFCDBF29
:100060000E94E8000C94ED000C94000020E030E0C9
:10007000EFE9FFE03197F1F700C000002F5F3F4F3D
:1000800082179307A8F70895C098C198C298C3989B
:10009000AF98AE98AD989098AC989198AB9892988C
:1000A000AA989398A9989498A898959897989698AC
:1000B0000895B89AB99ABA9ABB9AA79AA69AA59A95
:1000C000889AA49A899AA39A8A9AA29A8B9AA19AB0
:1000D0008C9AA09A8D9A8F9A8E9A0C944400C09A0A
:1000E0008AEF90E00E943600C098C19A8AEF90E0B3
:1000F0000E943600C198C29A8AEF90E00E943600B2
:10010000C298C39A8AEF90E00E943600C398AF9AD3
:100110008AEF90E00E943600AF98AE9A8AEF90E0A6
:100120000E943600AE98AD9A8AEF90E00E943600A9
:10013000AD98909A8AEF90E00E9436009098AC9A21
:100140008AEF90E00E943600AC98919A8AEF90E096
:100150000E9436009198AB9A8AEF90E00E94360098
:10016000AB98929A8AEF90E00E9436009298AA9AF1
:100170008AEF90E00E943600AA98939A8AEF90E066
:100180000E9436009398A99A8AEF90E00E94360068
:10019000A998949A8AEF90E00E9436009498A89AC1
:1001A0008AEF90E00E943600A898959A8AEF90E036
:1001B0000E9436009598979A8AEF90E00E94360048
:1001C0009798969A8AEF90E00E9436009698089544
:0E01D0000E9459000E946F00FFCFF894FFCFED
:00000001FF
