:100000000C943E000C9448000C9448000C9448005A
:100010000C9448000C9448000C9448000C94480040
:100020000C9448000C9448000C9448000C94480030
:100030000C9448000C9448000C9448000C94480020
:100040000C9448000C9448000C9448000C94480010
:100050000C9448002501270129012B012D012F01B6
:1000600031013301350137014201440146014801A4
:100070004A014C014E0150015201540111241FBE8E
:10008000CFE5D4E0DEBFCDBF0E9460010C94F30247
:100090000C94000020E030E0EFE9FFE03197F1F749
:1000A00000C000002F5F3F4F82179307A8F7089505
:1000B000C098C198C298C398AF98AE98AD989098E0
:1000C000AC989198AB989298AA989398A99894987C
:1000D000A8989598979896980895B89AB99ABA9AC0
:1000E000BB9AA79AA69AA59A889AA49A899AA39A3B
:1000F0008A9AA29A8B9AA19A8C9AA09A8D9A8F9A90
:100100008E9A0C945800C09A8AEF90E00E944A00A0
:10011000C098C19A8AEF90E00E944A00C198C29AA2
:100120008AEF90E00E944A00C298C39A8AEF90E05A
:100130000E944A00C398AF9A8AEF90E00E944A005A
:10014000AF98AE9A8AEF90E00E944A00AE98AD9ABE
:100150008AEF90E00E944A00AD98909A8AEF90E072
:100160000E944A009098AC9A8AEF90E00E944A0060
:10017000AC98919A8AEF90E00E944A009198AB9ACD
:100180008AEF90E00E944A00AB98929A8AEF90E042
:100190000E944A009298AA9A8AEF90E00E944A0030
:1001A000AA98939A8AEF90E00E944A009398A99A9D
:1001B0008AEF90E00E944A00A998949A8AEF90E012
:1001C0000E944A009498A89A8AEF90E00E944A0000
:1001D000A898959A8AEF90E00E944A009598979A7D
:1001E0008AEF90E00E944A009798969A8AEF90E0F2
:1001F0000E944A0096980895CF92DF92EF92FF9264
:10020000CF936B017C010E94D001C62F70E080E08B
:1002100090E00E94FE019B01AC01C701B6010E9463
:100220006B0120E030E040E251E40E948A020E942B
:10023000D001862F4C2F50E0FA013197EA30F105BA
:10024000B8F4E65DFF4F0C94ED02AB9A11C0929AA0
:100250000FC0AA9A0DC0939A0BC0A99A09C0949A8C
:1002600007C0A89A05C0959A03C0979A01C0969AAC
:1002700090E0FC013197EA30F105B8F4EC5CFF4FF7
:100280000C94ED02C09A11C0C19A0FC0C29A0DC061
:10029000C39A0BC0AF9A09C0AE9A07C0AD9A05C009
:1002A000909A03C0AC9A01C0919A88EE93E00E94A4
:1002B0004A00CF91FF90EF90DF90CF900C945800C0
:1002C0000E946D000E94830060E070E080E89FE380
:1002D0000E94FC00FFCF5058BB27AA270ED0E0C0D9
:1002E000D1D030F0D6D020F031F49F3F11F41EF47D
:1002F000C6C00EF4E095E7FBBCC0E92FE2D080F366
:10030000BA17620773078407950718F071F49EF512
:10031000FAC00EF4E0950B2EBA2FA02D0B01B901F7
:1003200090010C01CA01A0011124FF27591B99F06B
:10033000593F50F4503E68F11A16F040A22F232F77
:10034000342F4427585FF3CF469537952795A795C7
:10035000F0405395C9F77EF41F16BA0B620B730B6E
:10036000840BBAF09150A1F0FF0FBB1F661F771FDF
:10037000881FC2F70EC0BA0F621F731F841F48F494
:10038000879577956795B795F7959E3F08F0B3CF1A
:100390009395880F08F09927EE0F97958795089504
:1003A00098D088F09F5790F0B92F9927B751A0F0B7
:1003B000D1F0660F771F881F991F1AF0BA95C9F7F9
:1003C00012C0B13081F09FD0B1E008959CC0672F7A
:1003D000782F8827B85F39F0B93FCCF386957795A9
:1003E0006795B395D9F73EF4909580957095619592
:1003F0007F4F8F4F9F4F0895E89409C097FB3EF4BD
:1004000090958095709561957F4F8F4F9F4F992361
:10041000A9F0F92F96E9BB279395F69587957795DF
:100420006795B795F111F8CFFAF4BB0F11F460FF9F
:100430001BC06F5F7F4F8F4F9F4F16C0882311F0F7
:1004400096E911C0772321F09EE8872F762F05C00B
:10045000662371F096E8862F70E060E02AF09A95A6
:10046000660F771F881FDAF7880F9695879597F99B
:10047000089597F99F6780E870E060E008959FEF26
:1004800080EC089500240A9416161706180609062B
:10049000089500240A9412161306140605060895FA
:1004A000092E0394000C11F4882352F0BB0F40F482
:1004B000BF2B11F460FF04C06F5F7F4F8F4F9F4FC2
:1004C000089557FD9058440F551F59F05F3F71F044
:1004D0004795880F97FB991F61F09F3F79F08795AB
:1004E0000895121613061406551FF2CF4695F1DF34
:1004F00008C0161617061806991FF1CF86957105C4
:10050000610508940895E894BB2766277727CB01F7
:1005100097F908950BD0C4CFB5DF28F0BADF18F0F3
:10052000952309F0A6CFABCF1124EECFCADFA0F3FD
:10053000959FD1F3950F50E0551F629FF001729F78
:10054000BB27F00DB11D639FAA27F00DB11DAA1F97
:10055000649F6627B00DA11D661F829F2227B00DE4
:10056000A11D621F739FB00DA11D621F839FA00D6F
:10057000611D221F749F3327A00D611D231F849FBF
:10058000600D211D822F762F6A2F11249F57504016
:100590008AF0E1F088234AF0EE0FFF1FBB1F661FB1
:1005A000771F881F91505040A9F79E3F510570F06A
:1005B00060CFAACF5F3FECF3983EDCF3869577954A
:1005C0006795B795F795E7959F5FC1F7FE2B880F65
:1005D000911D9695879597F90895EE0FFF1F059049
:0A05E000F491E02D0994F894FFCF88
:00000001FF
