:100000000C942A000C9434000C9434000C943400AA
:100010000C9434000C9434000C9434000C94340090
:100020000C9434000C9434000C9434000C94340080
:100030000C9434000C9434000C9434000C94340070
:100040000C9434000C9434000C9434000C94340060
:100050000C94340011241FBECFE5D4E0DEBFCDBF29
:100060000E94BD000C94C7000C94000020E030E01A
:10007000EFE9FFE03197F1F700C000002F5F3F4F3D
:1000800082179307A8F70895C09A8AEF90E00E941C
:100090003600C098C19A8AEF90E00E943600C1985D
:1000A000C29A8AEF90E00E943600C298C39A8AEF03
:1000B00090E00E943600C398AF9A8AEF90E00E94C9
:1000C0003600AF98AE9A8AEF90E00E943600AE9864
:1000D000AD9A8AEF90E00E943600AD98909A8AEF30
:1000E00090E00E9436009098AC9A8AEF90E00E94CF
:1000F0003600AC98919A8AEF90E00E943600919871
:10010000AB9A8AEF90E00E943600AB98929A8AEF01
:1001100090E00E9436009298AA9A8AEF90E00E949E
:100120003600AA98939A8AEF90E00E94360093983E
:10013000A99A8AEF90E00E943600A998949A8AEFD3
:1001400090E00E9436009498A89A8AEF90E00E946E
:100150003600A898959A8AEF90E00E94360095980C
:10016000979A8AEF90E00E9436009798969A8AEFC5
:1001700090E00E943600969808958FEF87BB84BB6D
:1001800081BB18BA15BA12BA0E944400FFCFF89486
:02019000FFCF9F
:00000001FF
