:100000000C943E000C9448000C9448000C9448005A
:100010000C9448000C9448000C9448000C94480040
:100020000C9448000C9448000C9448000C94480030
:100030000C9448000C9448000C9448000C94480020
:100040000C9448000C9448000C9448000C94480010
:100050000C9448006F0171017301750177017901FA
:100060007B017D017F0181018C018E019001920154
:100070009401960198019A019C019E0111241FBED2
:10008000CFE5D4E0DEBFCDBF0E94AA010C94FF03F0
:100090000C94000020E030E0EFE9FFE03197F1F749
:1000A00000C000002F5F3F4F82179307A8F7089505
:1000B000C098C198C298C398AF98AE98AD989098E0
:1000C000AC989198AB989298AA989398A99894987C
:1000D000A8989598979896980895B89AB99ABA9AC0
:1000E000BB9AA79AA69AA59A889AA49A899AA39A3B
:1000F0008A9AA29A8B9AA19A8C9AA09A8D9A8F9A90
:100100008E9A0C945800C09A8AEF90E00E944A00A0
:10011000C098C19A8AEF90E00E944A00C198C29AA2
:100120008AEF90E00E944A00C298C39A8AEF90E05A
:100130000E944A00C398AF9A8AEF90E00E944A005A
:10014000AF98AE9A8AEF90E00E944A00AE98AD9ABE
:100150008AEF90E00E944A00AD98909A8AEF90E072
:100160000E944A009098AC9A8AEF90E00E944A0060
:10017000AC98919A8AEF90E00E944A009198AB9ACD
:100180008AEF90E00E944A00AB98929A8AEF90E042
:100190000E944A009298AA9A8AEF90E00E944A0030
:1001A000AA98939A8AEF90E00E944A009398A99A9D
:1001B0008AEF90E00E944A00A998949A8AEF90E012
:1001C0000E944A009498A89A8AEF90E00E944A0000
:1001D000A898959A8AEF90E00E944A009598979A7D
:1001E0008AEF90E00E944A009798969A8AEF90E0F2
:1001F0000E944A009698089580E487B93F983D98F8
:100200003598329A319A309A379A369A3699FECF83
:1002100084B195B1089597B18F71907E892B87B97C
:10022000369A3699FECF84B195B10895CF92DF9278
:10023000EF92FF920F931F93CF93DF931F92CDB74F
:10024000DEB7182F00E0C12CD12C7601061759F02B
:10025000812F69830E940B01C80ED91EE11CF11C7D
:100260000F5F6981F3CF202F30E040E050E0C701FD
:10027000B6010E94D703C9010F90DF91CF911F9162
:100280000F91FF90EF90DF90CF900895CF92DF9283
:10029000EF92FF92CF936B017C010E94BA02C62FAE
:1002A00070E080E090E00E94E8029B01AC01C70191
:1002B000B6010E94550220E030E040E251E40E9485
:1002C00074030E94BA02862F4C2F50E0FA01319736
:1002D000EA30F105B8F4E65DFF4F0C94F903AB9AF0
:1002E00011C0929A0FC0AA9A0DC0939A0BC0A99AF6
:1002F00009C0949A07C0A89A05C0959A03C0979A16
:1003000001C0969A90E0FC013197EA30F105B8F40B
:10031000EC5CFF4F0C94F903C09A11C0C19A0FC056
:10032000C29A0DC0C39A0BC0AF9A09C0AE9A07C05B
:10033000AD9A05C0909A03C0AC9A01C0919A88EE1C
:1003400093E00E944A00CF91FF90EF90DF90CF9012
:100350000C9458000E946D000E94FC000E948300D3
:100360006DEC7CEC8CE89FE30E9446010E945800F3
:100370006AE087E00E9416018B31910510F4969A8D
:100380008FC09C012B5131092A31310510F4979A05
:1003900087C09C01255331092A31310510F4959A03
:1003A0007FC09C012F5431092A31310510F4A89ADD
:1003B00077C09C01295631092931310510F4949AEE
:1003C0006FC09C01225831092A31310510F4A99AD5
:1003D00067C09C012C5931092A31310510F4939AD8
:1003E0005FC09C01265B31092A31310510F4AA9ABD
:1003F00057C09C01205D31092A31310510F4929AD1
:100400004FC09C012A5E31092A31310510F4AB9AA4
:1004100047C09C01245031402A31310510F4919A93
:100420003FC09C012E5131402A31310510F4AC9A65
:1004300037C09C01285331402A31310510F4909A7D
:100440002FC09C01225531402A31310510F4AD9A5C
:1004500027C09C012C5631402931310510F4AE9A49
:100460001FC09C01255831402A31310510F4AF9A44
:1004700017C09C012F5931402A31310510F4C39A1D
:100480000FC09C01295B31402A31310510F4C29A1A
:1004900007C0835D91404A9710F4C19A01C0C09A89
:1004A00084E690E00E944A0061CF5058BB27AA27FB
:1004B0000ED0E0C0D1D030F0D6D020F031F49F3F44
:1004C00011F41EF4C6C00EF4E095E7FBBCC0E92FA2
:1004D000E2D080F3BA17620773078407950718F014
:1004E00071F49EF5FAC00EF4E0950B2EBA2FA02DF4
:1004F0000B01B90190010C01CA01A0011124FF27D1
:10050000591B99F0593F50F4503E68F11A16F040CB
:10051000A22F232F342F4427585FF3CF46953795CA
:100520002795A795F0405395C9F77EF41F16BA0B8F
:10053000620B730B840BBAF09150A1F0FF0FBB1F3D
:10054000661F771F881FC2F70EC0BA0F621F731F86
:10055000841F48F4879577956795B795F7959E3FE3
:1005600008F0B3CF9395880F08F09927EE0F979571
:100570008795089598D088F09F5790F0B92F9927C4
:10058000B751A0F0D1F0660F771F881F991F1AF09E
:10059000BA95C9F712C0B13081F09FD0B1E008958B
:1005A0009CC0672F782F8827B85F39F0B93FCCF30C
:1005B000869577956795B395D9F73EF49095809594
:1005C000709561957F4F8F4F9F4F0895E89409C0B4
:1005D00097FB3EF490958095709561957F4F8F4F76
:1005E0009F4F9923A9F0F92F96E9BB279395F6958C
:1005F000879577956795B795F111F8CFFAF4BB0F0A
:1006000011F460FF1BC06F5F7F4F8F4F9F4F16C06D
:10061000882311F096E911C0772321F09EE8872FF7
:10062000762F05C0662371F096E8862F70E060E0B3
:100630002AF09A95660F771F881FDAF7880F96952C
:10064000879597F9089597F99F6780E870E060E0D3
:1006500008959FEF80EC089500240A94161617065B
:1006600018060906089500240A94121613061406A3
:1006700005060895092E0394000C11F4882352F006
:10068000BB0F40F4BF2B11F460FF04C06F5F7F4FBE
:100690008F4F9F4F089557FD9058440F551F59F0A5
:1006A0005F3F71F04795880F97FB991F61F09F3F5F
:1006B00079F087950895121613061406551FF2CF88
:1006C0004695F1DF08C0161617061806991FF1CFD8
:1006D00086957105610508940895E894BB276627FF
:1006E0007727CB0197F908950BD0C4CFB5DF28F059
:1006F000BADF18F0952309F0A6CFABCF1124EECFC7
:10070000CADFA0F3959FD1F3950F50E0551F629F6C
:10071000F001729FBB27F00DB11D639FAA27F00D5A
:10072000B11DAA1F649F6627B00DA11D661F829F81
:100730002227B00DA11D621F739FB00DA11D621F66
:10074000839FA00D611D221F749F3327A00D611D83
:10075000231F849F600D211D822F762F6A2F112465
:100760009F5750408AF0E1F088234AF0EE0FFF1FB8
:10077000BB1F661F771F881F91505040A9F79E3FEF
:10078000510570F060CFAACF5F3FECF3983EDCF3E9
:10079000869577956795B795F795E7959F5FC1F72C
:1007A000FE2B880F911D9695879597F90895A1E2E4
:1007B0001A2EAA1BBB1BFD010DC0AA1FBB1FEE1FDB
:1007C000FF1FA217B307E407F50720F0A21BB30B26
:1007D000E40BF50B661F771F881F991F1A9469F7A2
:1007E00060957095809590959B01AC01BD01CF01FE
:1007F0000895EE0FFF1F0590F491E02D0994F894F1
:02080000FFCF28
:00000001FF
